:20000000003A0120BD3E020039FB021039FB021039FB021039FB021039FB021039FB0210E4
:1C00200039FB021039FB021039FB021039FB021039FB021039FB021011FB021002
:20003C002DE9F04F99B0054680780224532800F2C985DFE810F054009900A800B800C80006
:20005C00DA00EA000C011B01C7052A0138015901C705C705C705C705C705C705C705C705AD
:20007C00C705C705C705C705C705C705C705C705C705C705C705650188019401A001AB01CF
:20009C00BA01D401EB0107023A02C705C705C705C705C705C705600276028C02A202B802F5
:2000BC00CD02DE020303C705C705C705C705C705C70538034C036003C7056D03770395036C
:2000DC009E03AA03B603C503CF03F303100435043D044F045C0468048C0493049604EC1CF7
:2000FC00E97A2A7B002320461CF040FD8DF8180006AB65200021012220F0AAFEDFF81C0B3D
:20011C000078012800F25D85204627F06EFD002800F0578505460079012840F0528527F067
:20013C00FBFA00274FF400018DF84B008DF84400000ACDF846108DF84D708DF84A708DF87F
:20015C004C008DF8450011AE214606F10A0027F0C4FD297815223346017069788770417023
:20017C004520FF2100F02BBD27F066FD6979AA790023002423F024FC8DF8440011AB652003
:20019C00012100F055BC27F009FB27F087FC014611A8022227F005FD8DF8180006AB65205B
:2001BC00022100F045BC27F0F9FA27F077FC014611A8032227F0F5FC8DF8180006AB65207B
:2001DC00032100F035BC27F0E9FA27F067FCEA79014611A80023002425F0DCF98DF8180059
:2001FC0006AB6520042100F023BC27F0D7FA27F055FC014611A8052227F0D3FC8DF81800BF
:20021C0006AB6520052100F013BC0020DFF8344A27F0A1F9ADF83800681DA0478046E81D6D
:20023C00A04795F809B0824605F10A07BBF1100F00F2B08311AC5E46002E00F0AE83384688
:20025C0027F08BFD24F8020B013E0237F4E727F0A5FA27F023FC014611A8102227F0A1FC95
:20027C008DF8180006AB65200721E1E327F096FA27F014FC014611A8112227F092FC8DF878
:20029C00180006AB65200821D2E327F0D5FC6A7B691D0023002422F045F98DF8440011ABA7
:2002BC0065200A21C4E302208DF8200027F0C4FCADF81800681D27F050FDEA79064605F1E2
:2002DC0008018DF8442011AF781C27F02BF806A831463A46002300241EF0BEFF8DF838000E
:2002FC000EAB65200B21A3E327F0A6FC0021002421F0E4FB8DF8440011AB65200C2197E353
:20031C000020DFF8404927F026F9ADF83800681DA047804695F80F9005F11000A04705F1ED
:20033C001304AD7C83460F2D00F2498311AE2F46002F00F04783204627F00FFD26F8020BCD
:20035C00013F0234F4E727F029FA27F00BF926F0D9FF40F0488306A827F0BFFC48E327F030
:20037C001DFA27F0FFF826F0CDFF40F04F8306A827F0B3FC4FE327F05FFC27F053FB8DF856
:20039C00440011AB6520232100F018BCDFF88C18C8208DF81800E81C0978002900F0838310
:2003BC0026F02FFC8DF81800A5E36879EE1CFE280BD1A879FF2808D12878082805D330468F
:2003DC0027F0CBFC314623F09BFD11A9304626F0E9F8002800F0938305460024A1E3E81CB5
:2003FC00042124F0D5FAE97927F0DBFCDFF848188DF84400022026F037FDDFF840180320CB
:20041C0026F032FD11AB65202621D7E327F00EFC044605F10E0027F0A0FC297C6A7C034643
:20043C00E878CDE90012AA1D214623F0DDFFDFF804188DF84400042026F016FD11AB652011
:20045C002721BBE34FF00208E81C8DF84C8027F084FCADF8440068798DF83800A81D27F002
:20047C007CFC2E7A044600270935CDE900570EA811A9224633461FF047FD27F0ADF910D142
:20049C00DFF894078DF84C80CDE9005722463346C08AADF844000EA811A91FF035FD8DF826
:2004BC00180006AB6520282188E30226E81C8DF84C6027F052FC27F0F1FAED79044611A8F1
:2004DC00002321462A4625F055FF27F085F90ED1DFF844078DF84C6021462A460023C08A92
:2004FC00ADF8440011A825F045FF8DF8180006AB6520292162E327F051F9ADF84400681DB4
:20051C00042124F045FA6A7AAB7A00240146009411A823F095FF8DF8180006AB65203021BB
:20053C0086E227F03BF927F082FA312201238DF838000EA8CDE90004DFF8F40611A91FF01B
:20055C00E3FC8DF8180006AB6520312170E227F025F927F06CFA322201238DF838000EA88C
:20057C00CDE90004DFF8C80611A91FF0CDFC8DF8180006AB652032215AE227F00FF927F0D6
:20059C0056FA332201238DF838000EA8CDE90004DFF89C0611A91FF0B7FC8DF8180006AB06
:2005BC006520332144E227F0F9F8ADF84400687B0024691D0094C0F3400200F0010311A86C
:2005DC0021F05EFA8DF8180006AB652034212FE227F0E4F86A7BADF84400691D11A800233A
:2005FC00002424F0E9FB8DF8180006AB652035211EE22C4614F8030B04281ABFE8782C1D60
:20061C0002208DF84C00204627F0A7FBDFF81C66A5780121E278ADF84400002300243170E9
:20063C0011A829461DF0E2FA8DF818002846347024F0FEFB06AB65203621F9E127F0FCFA5D
:20065C00ADF84400687904218DF84C00A81D24F09FF90446AE7AEF7A05F10C0027F07DFBE1
:20067C00DFF8B4850546214632463B4626F081FF11A81FF025FC27F0AFF810D102202146FC
:20069C0032463B468DF84C00B8F81600ADF8440026F06FFF11A81FF013FC8DF8180006AB1C
:2006BC00652037218AE26C7827F0C6FA0146DFF8780500781EF0AAFD8DF8440004F0E000B5
:2006DC00202840F07E8211AB65203E2176E26C7827F0B2FA0146DFF85005007820F0FCF8F8
:2006FC008DF8440004F0E000202840F06A8211AB65203F2162E200206C788DF84400DFF854
:20071C001C050078411E022980F09681022097E127F092FA27F086F98DF8440011AB652036
:20073C0042214BE2002006908DF84900CDF84500E81C06A924F040FF8DF84400069850B111
:20075C0026F0EDFE81788DF84710C1788DF8481000798DF8490011AB6520432106222EE26D
:20077C00E81C26F04EFA8DF8440011AB6520442124E227F061FA6979AA790DF025FD8DF86B
:20079C00440011AB6520452118E227F055FA6979AA7919F095FB8DF8440011AB65204621E3
:2007BC000CE2EC7827F042FA0146204621F01CFAB0FA80F0472140098DF8440011ABC3E1B0
:2007DC00E87800248DF8444021F01CFF11AB652047212DE1E87811AC214624F011FF074698
:2007FC008DF8180040000130C6B2304627F0B9FA002800F0A4810770054600209DF818103B
:20081C00814200F0BF8014F8102005EB40035A7004EB4002013052789A70F1E711AC132192
:20083C00204626F02BFCEE7827F000FA0146304624F026FB002800F089810021231D8DF888
:20085C00441026F06CFEC11C827818468DF8472026F068FD7DE10020EC78CDF85200CDF84E
:20087C004E00CDF84A00CDF8460027F0DFF9AA79ADF844000F2A28BF0F228DF8462022B1EA
:20089C0011A8E91D033026F04DFD11A9204601221BF0DCFC8DF8180006AB65204B218DE117
:2008BC0026F03CFB8DF8440011AB65204C2185E1E87829798DF8441011A9032800F0608161
:2008DC00022800F06381012840F06781522020F047F865E127F0B0F969790246A81D1AF0FD
:2008FC00A9F88DF8440011AB65204E2166E127F0A3F90146687918F05FFE8DF8440011ABB6
:20091C0065204F215AE1C44D0822E88A05F13901ADF84400C24800788DF84600A88CADF89F
:20093C004700688BADF8490011ACE01D26F0FAFC04F10F0005F11C01082226F0F3FC287EC1
:20095C005021182223468DF85B00652037E1B3480078002800F0028112200BE11FF0FCF9BA
:20097C002FE100208DF84400E878010606D5AA4910F07F0018BF012081F8680011AB652094
:20099C0053211BE16520492132462B4620F060FA28463AE180208DF843003E78102E52D87A
:2009BC000DF11809013734464D46002C4DD0384627F0D3F925F8020B013C0237F5E78020F1
:2009DC008DF8430027780F2F54D801340DF1180A3E46002E50D0204627F0BFF92AF8020B9F
:2009FC00013E0234F5E7084627F0B7F9ADF81800687E06A926F08EFC11A921201AF0A4F9E1
:200A1C008DF838000EAB6520212111E0084627F0A4F9ADF81800687E06A926F07BFC11A9F1
:200A3C0022201AF091F98DF838000EAB65202221012220F00DFAC5E0002840F0B5800420F6
:200A5C0008F0BCFCB3E080200DE0BBF1100F0CD811A9002052465B468DE8420203900EA8E6
:200A7C00414614F0FBF98DF843000DF1430365200621A3E080200FE00F2D0FD811A9002014
:200A9C0002974A465B46CDE9005106A9CDE903100EA8414614F08AF98DF843000DF1430321
:200ABC00652020218AE00EA911AD2A4617F074FD04469DF83800F0B1614904EB44000026D2
:200ADC0041F8206001EB800046609DF95700B0F1FF3F03DC05F1130021F0BCFA11AD1421C1
:200AFC00284626F0CBFA0420214614222B4623F0B7FE8DF8186006AB652024215EE01820A9
:200B1C0027F02FF9002800F083800446BDF8440000211822234626F097FA0546002818BF67
:200B3C00C825192027F01DF9002867D007460130002D4BD01821FF2226F09AFA50E00020CD
:200B5C0049218DF8180006AB652037E001208DF8440011AB65204A21132230E027F06CF8CF
:200B7C00044605F10D0027F0F8F80246691D204623F07CFC8DF8440011AB652051211DE0CD
:200B9C0052201FF0EDFE2748002104E052201FF0E7FE24480121017002E0522023F0BEFCD3
:200BBC0011AB65204D2109E001208DF8440004F0E000202805D111AB65204021012220F0D0
:200BDC0047F90024204619B0BDE8F08F3146082226F0A8FB07F109002146102226F0A2FB9B
:200BFC006520252119223B463D7020F031F93846192126F043FA384627F0B1F8002CE0D046
:200C1C002046182126F03AFA204627F0A8F8D8E7C825FFF7E2BB00BF98C50020300C0020DB
:200C3C002C0D00204A0E0020C3D200200B0E0020940C00206D4C020041510200BD410100CB
:200C5C0050A30020777D02002DE9F04F99B080466FF00700DFF8DCA80630ADF852009AF88B
:200C7C000000022814D1DFF8C808007880B9B8F8080010B11020012101E0302000210AF0DA
:200C9C0019F900208DF81C0007A952201FF068FE0DF11C0998F80810D8F804004A460FF0A0
:200CBC00B7FCE8B19DF81E609DF81F409DF82050BDF8267026F02AFD844211D127F0030076
:200CDC004FF6F87180B288420AD0012D08D8022E06D29AF80000022808D19DF84D0028B10E
:200CFC00D32012F00AFF19B0BDE8F08FB8F82800ADF84800B8F83200ADF82A009DF82200C0
:200D1C00D0B1D8F804109DF81D209DF83830012025F0CEFA08B1CF20E3E7DFF81C08C078E0
:200D3C00012809D1B8F8280026F003FF20B1417901F0E701083141719DF8210068B1BDF8D1
:200D5C002610FF2024F09CF89DF82110E0B141F001012C268DF8211017E09DF839000028FB
:200D7C0000F0EB809DF83D10FF2902D0002940F02681DFF8C807BDF82620C18A8A4240F038
:200D9C0027810120222607E0082601F00300012808BF46F0110601209AF800104FF6F87769
:200DBC00012908D83446B20758BF64F07F04002808BF344600E034469DF82200DFF87C57C8
:200DDC005FFA84FB30B9E87A20B10BF02200222840F080801BF0400004901CD0012903D89C
:200DFC00A87B800700F1D880119801780C2900F2DB80012241F298438A401A4200F0D480A5
:200E1C00032902D140780D2805D007A820F0D0FC01283FF468AFA88CB8F8441081420AD121
:200E3C0098F84620B8F84210B8F8280000230093002307F08FFC9DF82200F8B1B8F8421009
:200E5C00B8F8280020F0A2FF002800F08F800646D8F804009DF81D10F2780844417B8A42A6
:200E7C001EBF00227260F1700130042123F090FD71688842FFF437AF013070609AF800001F
:200E9C00022834D2A87B80077FF52DAF9DF84D004FF6F87660B1BDF8280025F001FC00284F
:200EBC0000F00781D8F80400417801F0DF0141709DF82E00002800F0DF80D8F80400817987
:200EDC00013981718DF82E1004F07F00090640F0D680D3E00BF0420042287FF41CAF1198BE
:200EFC00007800F0FE0006287FF415AF72E77FF4FAAE95F82600092802D004287FF4F3AEA1
:200F1C005FEA8B6000F19E80049800283FF4EBAE11989DF838100078042808BF022900F0D6
:200F3C004581072808BF042900F009810C2840F04D8107A814F04CFBD5E6BDF8260021F05F
:200F5C004DF90238DFF8F415B0FA80F0CA8A4109BDF82600904208BF023100293FD09DF8E9
:200F7C001E20002A56D001F1400455E09DF84D00B8B3042024F012FA00283FF4B4AE0146C7
:200F9C004FF4B2700880B8F828004880DFF8B00500781CF0F7FCA6E611980178A1F10C0257
:200FBC0012F10C0F3FF62CAFE88ABDF8262082427FF496AEBDF8280022F052FB90E6109AA3
:200FDC009DF83C001FF0DEFB30B101200026E3E690F826000428F8D100260020DCE600247C
:200FFC001AE095F86C0001287FF448AF11980078062803D1049800287FF440AFF81DBDF83C
:20101C002A1080B281423FF46EAE07A841461CF079FF68E601F1200421F0E0F80138B0FA4C
:20103C0080F0400944EA00069DF81E0000283FF4B2AE1198007825F06FFB012818BF04F0A5
:20105C007E06A8E698F8460026F046FA9DF82E00012840F0B480B8F82800BDF8281081425E
:20107C0040F0AD80BDF8260021F0B8F8022804BF00208DF82E00A2E004F07F000446210734
:20109C0002D44FF0000A34E0E1B24A0722D4C9069DF8211028D5C1F3820212B1072A18BF92
:2010BC00013A002A08BF044601F0E30040EA820118E0D32012F021FDDFF88804007800280F
:2010DC0000F09F80DFF8801451F82000C0EB0010810098E09DF8210000F0E00100F0E30003
:2010FC0040EAD1018DF82110D8F804004FF4805A017295F82600092801D0042823D1E98A76
:20111C00BDF8260088420AD021F068F8022806D09DF8210000F0030001287FF4E4AD9DF858
:20113C001E00002847D011989DF838100078042808BF02293AD0072848D1042946D107A8D5
:20115C0016F0B6FECFE5E7B214F0610F46D0F80709D0B8F8281007A8A94614F083FC0028D9
:20117C0064D004F09F040025E7B2A00609D598F84600D8F83C2026F0AFF907A815A905F024
:20119C00F7FA780640F12681B8F8281007A80DF152022B460FF0B8FA00286FD00546119886
:2011BC000078012808BF4AF0100A13E107A9002010F0A6F997E598F8460026F08DF9D8F836
:2011DC003C2007A815A905F0D3FA8CE503287FF48AAD07A800210EF0A5FF84E59DF81E0094
:2011FC0001285AD111980078032849D0052854D1B8F8281007A80DF1520200230FF084FA3F
:20121C0071E5D1480168D1480268BDF82800904701287FF468ADCE480168BDF828008847C7
:20123C00CC480168BDF8280088475CE524F078FC9DF82E100546BDF8280019B9B8F82810EB
:20125C00884291D0B9F81610814204D1BA48807800283FF489AFB8F8281007A82A4608F04C
:20127C0045FF002800F09B8038074AF0040ABDF8260048BFF01DADF8520075E70025A9E064
:20129C00BDF8260025F00CFA38B1B8F8281007A80DF1520200230FF037FA9DF82E0088B319
:2012BC0022F03CF800287FF41EAD9DF83900A0B3109A9DF83C009DF83D101FF063FA002854
:2012DC0070D09DF83D00002875D0109926F0FFFB9DF82430ADF8520011209DF823209DF83C
:2012FC0021104AF0400A002B08BF0920002A18BF0830002918BF0130D8F804100A5C013A13
:20131C000A5462E09DF81E0001287FF47EAE1198007803283FF4E7AC77E69DF82010BDF8AD
:20133C0026000029ADF8520000F0D3804020BDF8261009F11D0200EAC4059DF820002B46CB
:20135C0017F082FD38B1D8F804004AF0200A017801F03F0101709DF8390048B1BDF82610FD
:20137C0009F1200020F006FA4AF0400AADF852009DF81E00012806D0BDF82810BDF8260032
:20139C00002213F0CDFFBDF82810BDF826002A4611F080FD002818BF4AF0200A15E004F03E
:2013BC00DF04E0E6BDF82610BDF828000B22002319F0CEFA97E4BDF82600ADF8520026F01C
:2013DC00B8FB002808BF4AF0400A24F0A9FB05464FF6F876B01DBDF8521080B20F1A5E4830
:2013FC0018BF2F460078012805D1F01DB8F8321080B281422FD160B2B0F1FF3F3FF773ACD4
:20141C00002F3FF470ACB8F8080026F0AAFC00283FF469ACB8F80820D8F80410054625F032
:20143C0081FF9DF81E10002098F80830B8F8282016908DF85410BDF8521015ACCDE9007AD6
:20145C00CDE9020428460FF01BFE70B3284626F086FCFFF748BCB8F828108142CBD0701C39
:20147C00BDF8262080B28242C5D2BDF828008142C1D026F05EFB0028BDD001790139012995
:20149C00B9D8408801218DF85410ADF8600015AD28461DF04FFA0028ADD0281D1CF06AF9E8
:2014BC000028A8D020F074FAA5E72348407800283FF419AC00208DF81870ADF81900DDF863
:2014DC0026004FEA3040059005A825F0B3FDFFF70ABC39073FF52AAF9DF81E1001293FF4F1
:2014FC0025AF002117F070FC20B1407901380228FFF41CAFB8F84410BDF8520020F046FC60
:20151C0030B1807824F03CFD01380728FFF40EAFBDF8280025F0C4F818B104208DF8200031
:20153C0004E7BDF82610BDF8280002223FE700BF4A0E0020300C0020E80B002098C500206F
:20155C00C5D200203C0E0020B8920200A4090020AC090020A8090020480E00202DE9F043D0
:20157C008DB0054680780224252800F27380DFE810F02600A400C400D700EA00F800060162
:20159C00B602B6021D012E01B602B602B602B602B60246014B01B602B602540158016101C7
:2015BC00B602B602B602B602B602B602B602B602B6026B016E017101740178017F01DFF805
:2015DC00D47500240E258DF804403878012807D801A81BF067FD04469DF8040005EB40059E
:2015FC00EEB2304626F0BDFB002800F087824FF000080546431C0021082280F80080012075
:20161C0025F022FD26F088F86872000A0721A872DFF88405E972007828733878012800F225
:20163C0062829DF80420002A6A7300F05E8205F10E0000212346914280F0578213F8022B38
:20165C00013100F8022B13F8012C00F8012C9DF80420F0E7A0F140010D291FD8DFE811F063
:20167C000E0010013F023F021E012E013F023F023A014501500165013F02740101ACE91C3D
:20169C000822201D25F04EFE204618F0A9FEBDF806004021ADF828000AABEEE0632800F06A
:2016BC006981642800F07681E02840F0188200244720E021002200230FE2202026F051FB7B
:2016DC00002800F0C1812021FF22044625F0D0FC631C01200021082225F0B6FC05460028E2
:2016FC0018BF012501AB84200021042225F0ACFC002800F00582023506E2E81C26F02DFB7D
:20171C00ADF80400832026F05CFA014601AA832026F02EF98DF828000AAB6720022190E1A6
:20173C00E81C042123F034F90190842026F049FA014601AA842026F01BF98DF828000AAB74
:20175C00672003217DE1612026F03BFA0146EA1C612026F00DF98DF8040001AB67200421CD
:20177C006FE1622026F02DFA0146EA1C622026F0FFF88DF8040001AB6720052161E100201E
:20179C008DF80400E81C26F0E8FA6A7900F4F851002A00F04981B1F5A06F04D04FF6FF7166
:2017BC00884240F04B814FF0FF3045E126F0A1FA044625F075FFD949604301ACB0FBF1F130
:2017DC00204626F048FA672009210422ABE0DFF8B4632D79306840B901AC204625F067FE1B
:2017FC00012021460DF0E4FD3060052D00F06981002D00F06981642120F080FC66E115F85F
:20181C00032B672010216EE0E87821F0B9FF8DF8040001AB6720112113E10024672014218D
:20183C0002E0002467201521ADF80840019401AB062252E100246720162109228DF80C4062
:20185C00CDE9014401AB48E1F52020210BE0F520212108E0F520222105E04FF6F5702321F1
:20187C0008E0F52024218DF8040001AB6720E8E0F5202521ADF8040001AB67200222E1E06A
:20189C00E81C26F06AFAADF8060001AC204616F0CBFA231D672041210822D3E0E81C0AA968
:2018BC0024F080FE00288DF8040000F0CF8001A81821FF22013025F0DBFBF4E0E81C0AA9E0
:2018DC0024F070FE00288DF8040000F0F1804FF0FF30EFE015F8030F697820F0F3FB288075
:2018FC006720482102222B46ACE0E87823F074F901AC0146204617F067FC6720492111E035
:20191C00EC1C204624F08AFB002818BF2046B5F80B1018F0F5F801AC0146204617F054FCD1
:20193C0067204A21242223468CE001ACE91C0822204625F0F7FC204625F0AAFA8DF8280068
:20195C000AAB67204B217CE04FF0FF3095F80380691D0190ADF81000CDE90200FE208DF8C2
:20197C000600287903288DF8300020D10AA826F0B4F921E00024E91C08228DF8284001AD6F
:20199C00284625F0CFFC28461BF0F4FE0AAB67206321A1E0B5F80B006A7B0024E91C8DF8E6
:2019BC00044009F0F7FB01AB6720642194E0084626F0D3F9ADF82800AF7B002F00F0DD800D
:2019DC007E0095F80D90304626F0CBF9002800F0D48005F10F013246044625F0A3FC009477
:2019FC000AA940464A463B460CF0CEFE002800F0BA80837801784278057946798DF8063041
:201A1C008DF804108DF80520C3788DF809608DF808508DF8073001A98B1D811D40794200BA
:201A3C00184625F07FFCA5E0B1F5A06F03D04FF6FF71884202D100205549086001AB6720E4
:201A5C00062101221FF004FA002448E0182026F088F940B3BDF828100446009006200022F6
:201A7C00182322F0E7FEB8B9BDF8285001AE21461022701C25F056FC444F05EB450506F17B
:201A9C00110057F8251026F0E6F807EB8500416806F1150026F0DFF82046182125F0EEFAEC
:201ABC00204626F05CF901AB672044211922C9E7BDF82800ADF8050001AB67204521032271
:201ADC00C0E7314901220A701FF061FD002467200A218DF8044001AB01221FF0B9F920462A
:201AFC000DB0BDE8F08385F80D806720002132462B461FF0ADF9284626F031F97CBBA3E736
:201B1C00019800BAC4F809000AAB83200021022225F09AFA20B1043506E000BF40420F000B
:201B3C00BDF82800A4F80D0004F10F0361200021012225F089FA002818BF083504F110035B
:201B5C0062200021102225F07FFA002818BF1035234625706720012120221FF079F92046F2
:201B7C0026F0FDF870E74FF6FF70ADF808006FF480300190204626F0F2F801AB67204D21DB
:201B9C000E225FE758D20020080E002084CD002038D20020300C00202C0D00202DE9F04F8E
:201BBC0085B084780226362C00F2BE820546DFE814F06C01740172007C017800BB02BB0243
:201BDC00810037004C008C009F00AD00BB02B5009001BB02BB029A01AD01BB01BB02BB0211
:201BFC00BB02BB02BB02BB02BB0237004C00BB02BB02BB02BB02BB02BB02BB02BB02BB02F0
:201C1C00BB02BB02BB02BB02BB02BB02BB02BB02BB02BD00EB00CB01FF005B005B00DB01FE
:201C3C0025F0FEFF242840F0AA8102AB352000210422002425F008FA002800F0FC81012095
:201C5C0002228DF810000020FCE100208DF8100025F0E6FF0646092C40F0ED8095F80590C3
:201C7C0095F806800720EFE0DFF82465306880B1406A70B102A925F0DCFF0546342C40F0D5
:201C9C002C82284626F069F8002800F02582042041E203203FE2DFF80835612002210A2267
:201CBC003FE202ACE220214622F038FC61200421082288E125F0B4FF0446681D26F04DF85F
:201CDC00242C40F087810020FBE1E878032800F29781281D26F041F80246E878DFF8B814F0
:201CFC0031F81010DFF8B404007825F0B1FF88E1E878032800F28981DFF89C1431F81010F3
:201D1C00DFF8980400781BF0E1FA7FE125F0D5FEADF8080002AB61200C2103E100266120FB
:201D3C000E2101228DF8086002AB1BE2DFF8606401208DF810003068002800F02C81006987
:201D5C00002800F0288102A925F073FF042122F01FFE002800F0EC81044626F002F8002819
:201D7C0000F01C812146054625F088F93068BDF80C1022462B4606690298B0478DF810009B
:201D9C00284625F0ECFF09E1DFF804442068002800F008818069002800F0048102A925F041
:201DBC0048FF2068BDF80C10826902989047FAE0DFF8DC733868002800F0FB80C069002887
:201DDC0000F0F78002A925F034FF9DF80850BDF80AB0BDF80C90044625F0BFFFA6788046DF
:201DFC00F72E28BF6FF00806B01C5FFA80FA504625F0B7FF002800F09D81012D044608BFD9
:201E1C00BBF1000F00F09A813868A11CF3B24246C569029800914946A8470746002840F0DA
:201E3C00938100276120332152462346667027701FF00EF888E1681D25F08FFF8146E81D96
:201E5C0025F08BFF8046092002AF242E18BF2F1808BF3526304609EB080525F0B2FE854292
:201E7C0001D9022057E1B9F1000F04D1304641463A4620F04FFD304641463A4625F078FDA4
:201E9C00002800F0E5800A2045E1E878012802D0002840F0488125F0ADFA40F25960012114
:201EBC00ADF8080002AB61203CE00120EC1C8DF80800E22021461EF053FD30B9012008215F
:201EDC00224625F055FD8DF8080002AB6120032126E1E878291D012800F0E180002840F0B9
:201EFC00E580E020DFE025F09BFE0446681D25F034FF242C0FBF00200146204625F014FECB
:201F1C008DF8080002AB6120122109E125F088FE24280CBF002025F054FEADF8080002AB3A
:201F3C00612013210222FCE0E8788DF8080099488068D0F8302402A9E02090478DF81000E7
:201F5C0004AB61201421EBE0914C206898B3806A88B302A925F06DFE2068BDF80C10826AF0
:201F7C0002989047014627E0894C206868B3C06858B325F055FE2168C968884726E080461E
:201F9C006938002680B2032838BF0126681D082C40D1057841E003208DF8100004AB612093
:201FBC003021BDE003208DF8100004AB61203121B6E00327CDE0002102AC204625F04BFEDD
:201FDC006120322104222346ABE0032025F061FD3621A5E005F10806ED790146A8426CD9A5
:201FFC002046002225F0BEFC09288DF808006AD1002D68D020462946324625F0B9FC62E0B7
:20201C00022025F046FD0A218AE0022025F041FD0B2185E025F0A1FE0546404625F0D1FD27
:20203C000227A84288BF7700CFB100268DF808706120214692E002988DF810400422ADF87C
:20205C00120002208DF8110004AB6120082168E0012E62D1E22039461EF082FC5BE0471BED
:20207C00B8B2F72828BFF727B81CC6B2304625F078FE002860D01FFA87FB00F102098246B2
:20209C004846594624F0FAFF404629465A464B4624F0DAFF0546002867D00A2770E008782C
:2020BC00022814D252201EF05BFC00E002208DF8080002AB61200F2132E02046324625F02B
:2020DC0051FC8DF8080002AB6120072128E002A9522022F023FAECE702359DF8080015F8AC
:2020FC00018BBDF80C7001280ED1BDF80A0058B9384641462A4620F00DFC012F04D1E2209A
:20211C0029461EF02DFC01273068394642462B46466A0298B0478DF8100004AB6120214658
:20213C0001221EF095FE0026304605B0BDE8F08F052031E710270CE0102776E7A9F1690053
:20215C000328BFF461AE0227204625F008FE002FE9D000268DF80870612033218DF80960FE
:20217C0002AB02221EF074FEDEE78AF80170002761202146324653468AF800701EF068FEB4
:20219C00504625F0ECFD002D7FF44FAFCBE700BFC40D00200C01002050970200C3D20020C4
:2021BC00EC9602002DE9F04F8FB00C4648070FD4200441D4E00400F19781200600F1C081E9
:2021DC00A00700F1D481200500F1F3810020B4E1DFF820050178062900F2AD81DFE811F02B
:2021FC0007009401AB01AB019901AB01A001DFF81055DFF804152A7891F82B30022A02D137
:20221C009E0600F198815E0700F19D819B0740F192810423037091F82C30DB0700F08B813D
:20223C0091F82E30002B00F0528223F051FF0420012101F059FD57E2DFF8C8040394DFF872
:20225C00BCB4DFF8B094DFF8C474DFF8AC44DFF8B054DFF8BCA448F20208008802909BF8FE
:20227C0000001BF061F8002800F03A8106460078D3282DD1F089404540F0198138780028AE
:20229C0000F0158199F80000012840F0108124F0A9FF002840F00B817088002840F00781A9
:2022BC00A24604AC1221204624F0E8FE25F070FA3046214617F032FBBDF81C00B0F5285F4A
:2022DC00C0F08880012002211DF0F6FE54462AE099F80010884217D1012834D0032840F066
:2022FC00E68028780138012800F2E180B078012851D0002840F0DB807078002800F0BF80A3
:20231C0000201CF057FCD2E00A2811D194F82B00BA46B71C3071A16909B1384688473846A2
:20233C0023F0CEFB5746DFF8D853DFF8E4A3BEE02978002940F0BB80092840F0B880A16833
:20235C00B01C8847B3E028780138012800F2AF80707860B194F8330094F83410013084F8DB
:20237C003300C0B2884202D9012000219DE099F80100032858D0022871D0012840F0978078
:20239C003878002800F08C8024F02CFF002800F09280012085E07078002875D025F0BCF93F
:2023BC004FF6FE71884203D1BAF81600884207D0AAF81610ADF8281053200AA91EF0D0FAA3
:2023DC001DF084F923F0DCFB00208AF826001CF0E7F86CE0CF48006809A90AAA16F0DCF8AF
:2023FC00074602985446C64DDFF824A3874212D29DF8380010B1FD208DF8380004203946D7
:20241C0014220AAB22F02CFAC34907EB470001EB8000012141720020012184F832000120E6
:20243C0001F062FCB94F42E0A2460AACAB20002122461BF073F9042004945446DFF8D0A2FF
:20245C00AF4D8DF8140004A80EF076FF25F0A0F99BF800004FF4805141F288321DE001204C
:20247C0020714FF48060ADF828000AA817F07EFF25F08EF9A4484FF4805102680BE00FF099
:20249C00ABFC606998B9A2E702204FF4805140F6B83289F802009BF8000025F0D9FB06E09B
:2024BC00002084F832000120012101F01DFC304623F0F0FDD3E694F8350020B1E0690028B3
:2024DC00F5D08047F3E70020002102220023ADF8280002208DF830000AA823F04BFFB5E7A3
:2024FC00039880F4004028E0854800780138012859D88048017803294DD0012953D1417800
:20251C0000201DF0D9FD4EE0012001211DF0D4FD11E023F0DDFD0420012101F0E5FB0AE06E
:20253C00002132220170744880F82A1073480421007825F08DFB84F004000FB0BDE8F08FDB
:20255C0084F08000F9E70522027091F82C2092072CD591F82E204ABB052202600120487045
:20257C0000201AF0C7FF022023F05CF8E3E764480078013801280BD80020CDE90A000AA801
:20259C0011F0C6FE20B15D48022100781AF0CEF984F00200D1E78178022904D1012181703E
:2025BC0000201DF065FD84F48050C6E705200021B3E753480078002840F08680DFF838A17A
:2025DC00DAF80C50002D79D004A80DF1280B01300BF104060390002D6DD0A87A18B1013806
:2025FC00A872000646D19AF83180B8F1000F11D00020A91C08228DF82800304624F092FED6
:20261C00584617F0EDFE28B12A88BDF82A00314621F02CFFAF1C0DF127015A46384615F0DD
:20263C00BBFF8146384609A921F081FCB8F1000F05D09DF8380040F0020002281CD1DAF8CA
:20265C000800A0B103983946082224F06BFE022000220C238DF81000BDF82400ADF81A00A4
:20267C002648007804A9009109211EF0CEFF28461CF08AFEED68AEE7384622F0C8F99DF843
:20269C0027000128DBD15846142124F0F7FC224A09EB490000215B4642F8201002EB800006
:2026BC00142241604172FF2049468DF83800042022F0D6F8C3E7DAF80C0028B90F484FF402
:2026DC00006100781AF002FE84F4006035E7013A012A09D8032202600120487001201AF035
:2026FC0009FF012022F09EFF287800287FF423AF04205CE73CD20020F0070020CCD200206F
:20271C00300C002094970200CC0D00201F0E002098C5002014D2002050A300202DE9F04FE3
:20273C0089B020F033F8DFF810158122DFF81485DFF814A5DFF82045DFF814E50A70DFF80D
:20275C00FC140860DFF8F804FF2101700020DFF80415A8F800008AF80000DFF8F004096813
:20277C00007891F808B04FF6FE718EF8000059448AB2A168D1F80031DB899A4200F2678154
:20279C000422DFF8DC54A8F80020DFF8D02412689668330ECEF80C60C6F301592B706FF06D
:2027BC00FF0303EA1627B3B2D1F8B86047EA1327AEF8047036781EB9B9F1020F00F047810E
:2027DC00B9F1030F00F043811B0A03F0070316B1002B00F03C81DFF88CC4042B9CF800C002
:2027FC0008BFBCF1000F00F032813EB1DFF878643678862E02D1022B40F02981BB0416D410
:20281C00BBB203F00703022B08BFBCF1000F20D0DFF854140978862909D1002076461FF05E
:20283C00EDFFDFF84004B64690F800C0307800284ED0BCF1000F4BD1012800F0088103289E
:20285C003FD0022844D1BEF80400400740F0FF803EE0D1F8D40090F88300022800F080807E
:20287C0027460520147BF246A946A8F8000025F04EFA0546DFF8F003007886286DD1B8685E
:20289C00016C096811B9D0F84C05804760B20021002625F0ACFAB9680A6C12685077086C34
:2028BC0000688677086C0068C477284625F037FABAF8041099F8000001F010011BF0C4FEA6
:2028DC004EE0BEF8040000F00700032840F0BF80BEF80400010700F1BA80810402D4810595
:2028FC0000F1B5809EF80E20C2F38107012F00F0AE809609012E00F0AA80B9F1010F11D8BC
:20291C0040F0020101F0070103290BD117B93F2A40F29D8037B9A168D1F8AC1009780029B7
:20293C0000F095804FF6FB71B9F1020F0BEB010C19D1CF4BD95D9B5D03EB01090023402A50
:20295C00B7FA87F238BF012352091A40430616D4002A08BF09F1020915E0284625F0DFF9E8
:20297C0023F0E8FD75E0C14B402AD95D9B5D03EB010908D3420648BFA9F1020903E0002A76
:20299C0018BF4FF00209C0F300205FFA89F11FFA8CF30A1A8EF801009A4258DC60440391C9
:2029BC00B346401AA168AEF806007430D1F8501280B28847A6490028886048D07421CDE9C1
:2029DC00019724F05BFBA24F0020B870A548007820B9387900F020008AF8000078789AF89D
:2029FC000010DFF878C24FF000092E4600299A493DD000284FF000003AD1B88800F007001C
:202A1C00032807D0012832D18868D0F8D40090F8820060B3C8684069007818B124F0A2F9FA
:202A3C00FE280DD08C488068D0F84C02804738B989488068D0F844028047002800F0F780D0
:202A5C00834F0120B870DFF814C22E4610E023F0B3FF25F05CF9814900240A6813681C7197
:202A7C0012680A6025F05BF909B0BDE8F08F0020BC6804F1740184F830B06160A16579784E
:202A9C00BB88FA880029A381029B228184F83A30337808BF994697F80EB084F84990019D51
:202ABC00A4F85C20FF22B8F80030A273CBF301195E1A797BA8F8006001F0780160F3820148
:202ADC0001EB09002074280600F0AE80DCF8000004AF039A10FA86F000F10801384625F0D4
:202AFC00CDF956FA85F0CBF38105A8F80000207C00F04008CDB3B9F1020F06D1B8F1000FAD
:202B1C0003D0B4F8440004AF06E0BDF810000237A4F84400A4F84200564EF189884203D0C6
:202B3C004FF6FF7188425ED1032D11D104F13200394625F0D2F8464CF11CA068323022F019
:202B5C004CFF454900284ED094F80EB008370EE037F8020BB1898842608606D04FF6FF7112
:202B7C003B4C88423C493ED101E03B49384CBBF1400F20D3B9F1020F06D16DB9B8F1000F0D
:202B9C000AD13348806803E0A068017C490603D439880237A0F84210BBF1C00F06D32C4C9D
:202BBC003946A068283025F098F803E0284C3888A168088528498968A088D1F8AC2012781F
:202BDC00B2B1B9F1020F13D200F00700012802D003282FD11E4C6DB9264AA368D289B3F8A8
:202BFC004230934206D016F0D6FE18F08DF930E700F00700032806D0012815D1D1F8D40079
:202C1C0090F8820080B1A068D1F848128847104A50B90020D17B9070907BC1F3011100F0D3
:202C3C00780008449168087408F01CFC11E7084FB87808E7064CDDE7D9D2002068D2002086
:202C5C00DED200206AD10020DCD20020DBD20020340B0020A8D200200C010020F4D1002087
:202C7C00ECD20020EBD20020E1D20020449702004097020020D100202DE9F84305460C46F5
:202C9C00480414D4A00023D4A0075DD4600500F18080200500F10781200700F13C8160004C
:202CBC0040F1F78019F0A6F924F08044F1E025F02EF8DFF824140F6D3FB1D7E90A1202F07B
:202CDC00E04201F00A01891848D025F028F85DE0BC48DFF80874016841F080010160B8788C
:202CFC00012804D1042020F041F80020B87025F00EF80646B448406D016804208847DFF8C2
:202D1C00E4130A68904219D12A7EBAB1FA68AAB1DFF8C403806C002800F09880C16840F689
:202D3C0003020988914206D0C06840F604010088884240F08B8005F1140089E040F6C412C9
:202D5C000860C5E9042285E00AF0B2F8DFF88803006C002808BF24F002049AE0D7E90A6592
:202D7C00D7E90A12AA43B143C7E90A1224F0D7FF56EA0501B86818BF002807D0D7F808C0F1
:202D9C003869B7F9301032462B46E04724F480447FE024F0BCFF054622F090FB002800F06C
:202DBC00B780CD48876B002F00F0B280DFF82C830420CD49002288F81800C74822F063FD6D
:202DDC0024F040FFC94824F09CFFC5480068006B8047C8F810000125042088F8025020F021
:202DFC00FFFC386990F82810C8F80400490703D5436A04210022984701201AF0EFFDD8F8B5
:202E1C000400457612F0E0F9D8F8040081680B461A465B684BB11E88A6F60306072EF7D880
:202E3C0005FA06F616F0830FF2D0537B03F0F003013353730023FD6853602D88A5F60305E0
:202E5C00012D00F28A80C8F810309FE005F110001DF076FC304624F062FF20F0D9FC78B12F
:202E7C002E6A28466FF4807100224FF00073B0479948806B10B119F0BDF801E044F00204AB
:202E9C00EE692846002100224FF08063B04724F0005434B1984821462830BDE8F84324F015
:202EBC0078BFBDE8F8838D4EB078012804D104201FF05CFF0020B07020F0AAFC38B1706859
:202EDC006FF4807100224FF00073056AA847306950B183480068006B804732697168801A43
:202EFC00000BC860002030617B4D82490022284622F0C9FC02203076286C20B17E480221C2
:202F1C00283024F046FF19F075F824F40064C0E724F098FE41E024F0FAFE054622F0CEFA4F
:202F3C00A0B1DFF8B88198F8000000070ED498F9000000280AD4684612F07EFF08B1009886
:202F5C0020B1DFF8B89199F8610048B324F07AFE19F050F824F008049BE7034633F8385FED
:202F7C00A5B190F8445090F8456005F0F00580F8445006F0F005013580F84550002553609A
:202F9C00C5634587507B00F0F000507358480022C2610160012022F0E3FE24F4806478E7FE
:202FBC0000260127602E11D009EB0600817A31B18772407A07FA00F0C0B21FF0F1FE2036F7
:202FDC00F0E700BFCC2108408C010010032088F81800464824F095FE24F034FE444F3E4D19
:202FFC000022786900207861F968F8602846444922F049FC3A480068006B8047D8F80C10A6
:20301C00D8F82020411A02EB1130B0EB113F38BF4FF0FF3098F82410C8F8200021B1D8F865
:20303C000810B0EBC12F20D922F0AAFEB8B140F60900414621F83C0F002048804A7B02F0EC
:20305C00F00201324A730A7B02F0F0020A734860F8613960B8F83E0010F4406FFAD0002067
:20307C00C8F82000012088F824001CF0E9FC2548002101600220002122F072FE02201FF0B9
:20309C0075FE102011F07CFC98F8010020B9D8F80400503024F075FE1B48807810B90D2062
:2030BC0011F06EFC98F8250028B1002088F8250005201FF05BFE002088F818001348C8F8D6
:2030DC001C000220B5F85610B5F85420914208BF072018F075F93BE720060020F8040020A7
:2030FC008C010010380D0020B5540200C0C9002000100440410201006005002078C6002083
:20311C0075C0010000000460B09602001DFA00002DE9F04F8DB084780226142C00F21F8211
:20313C000546DFE814F02900150015004A0085001C021C021C021C021C021C021C021C024B
:20315C001C021C021C028E009C00AF00BE00CC0001206A78022C8DF83100089240F0C080A5
:20317C00E878291D03288DF82C0040F0E18009A8082224F0D7F8E0E010208DF82400102099
:20319C0024F0EFFD98B10446DFF8E00321466060E81C10F0DDF88DF8240028B9204622F0C4
:2031BC001DFA8DF8240010B1204624F0D8FD002609AB642000210122C2E10020CDF82A00CF
:2031DC00ADF82E00CDF8260002208DF82C00E81C24F0C3FDADF824006979A8798DF82D10DC
:2031FC0024F030F98346E81D24F0B7FD95F80C908046687AAC7A95F80BA04FEA49078DF8A3
:20321C003100384624F0ADFD002800F01081CDE9074806464FF0000805EB0800474570D020
:20323C000D3024F09AFD26F8080008F10208F3E7E8781FF085FE8DF8240009AB642004218F
:20325C0089E1E978032900F25281281DDFE811F00400510155015D0118F054F976E1E81CCF
:20327C0024F07BFDC04C6668002E00F0E4806A79002A00F0E4803368A91D184424F052F8CE
:20329C000020D9E0B84EEC1C04212046376821F07FFB002F4AD0B968814200F0A0803F6892
:2032BC00F7E7A888ADF82400E87809A923F08CF88DF832000DF13203642013214BE100267E
:2032DC00E878ADF8246009A922F054FBBDF824000DF1320314210222ADF8320064202FE166
:2032FC00E81C02218DF82C1024F037FDADF82400002005F10608ADF82E0068798DF82D002F
:20331C0026E0BBF1000F00F0B580437B0DF131010E30CDE90496CDE9000107985946CDE984
:20333C00020A09A8089A1DF073F8A4E0012000E1084624F012FDADF82400287B8DF82D0085
:20335C0005F10D0024F009FDADF82E0005F10F0898F8000024F076F8054608F1010024F0E9
:20337C00FCFC98F8036098F804A098F805B08146022C8DF8326009D108F1060024F0EDFCEB
:20339C00074608F1080007F10A0104E098F8067008F1070039464DB10A3189B2FB2907D3E5
:2033BC00DFF8C481D8F8040000286ED0022009E00DF132018DE8030C09A84A463B462946AA
:2033DC0004F00CFC089E8DF8310006F0E000202840F0C4800DF1310364202146BBE0EC1D26
:2033FC00204624F0BAFC6D7A002D00F0978005F102098246484624F0B4FC002800F098801B
:20341C000026457080462A460670786800EB0A0108F1020023F086FF5FFA89F26420122115
:20343C0043461DF015FD404624F099FC97E010208DF8320024E010208DF8240016E0D6F89A
:20345C0000C0F38AB28A3169757EB77E06F11800CDE900C0301DCDE9025704F0BFFB8DF801
:20347C002400606824F07BFC0020606009AB6420112170E002208DF83200304624F06FFC51
:20349C000DF132036420032165E007F11C0024F068FC0028C8F8040055D000F11C010C2217
:2034BC00016000208DF83100D8F8040009A9043023F038FFD8F804000F214FF47A7205611C
:2034DC002A4DC17680F81AB080F819A00676C782A0F814900821287824F0BAFB089E00284E
:2034FC003FF473AF2878082119F020FA6DE702202CE0007819F04AFA28E0007823F0A2FFF4
:20351C0018B323F089FC002020E024F026FCA97924F09EF9B0FA80F0400917E03068B8421D
:20353C0001D138683060384624F019FC002000E010200026207064201221022223466670C6
:20355C001DF086FC0BE010203CE701208DF8240009AB6420102101221DF07AFC002630460D
:20357C000DB0BDE8F08F00BF740C0020C3D200202DE9F04F8FB00C4608040CD4A00426D4CA
:20359C00DFF88853287802282DD1E10740F00181A10641D558E0DFF86C03007819F0C4FE7D
:2035BC0090B10178DFF8602305460020602808D0135C08308B42F9D1104450F8041C2846A8
:2035DC008847284622F066FD84F4004595E11CF003FE28B10546FDF737FB284622F05AFDBC
:2035FC0084F4005589E1A1062ED4012814D8E10600F11781610600F12F81210600F13D816C
:20361C00E10500F13F81210500F14181E10400F15481610400F15B81A10700F1E080A105A2
:20363C0000F1FA80210700F11181610500F11981E0034FF0000540F160811BF0A3F9B64889
:20365C00C57084F4803558E1AE4F202138781DF07FFCDFF8C4820125D8F80810084317D0E0
:20367C0024F047FB054624F01BF868434FF47A71B0FBF1F0D8F80810401A4FEA500538BF3A
:20369C006FF00045002908BF0D46002D00F0C28000200421002221F0A7FC06464FF0060A12
:2036BC004FF0FF094FF6FF780DF1080B002E4DD0304604210022374621F096FC06463889A5
:2036DC00401B38BF002038810004EFD1B87BD0B301280AD17889400707D4386887F80DA036
:2036FC00B721407B1CF030FDE0E739685A468DF80690ADF80480086AC97F0CF089FF01282F
:20371C001BD1B87BB97A8DF838000907788A40F08002ADF8362006D540F4C070ADF83600A5
:20373C00387B8DF83A00786910B1007BADF81800584601A9002203F01BF8387B87F80DA0D2
:20375C0015F002FDB2E701207873AFE7DFF8C8816C4F21F059FD00200121002221F044FC17
:20377C0018B13878202119F0E1F8002004210022002621F039FC002847D0068904210022A9
:20379C0021F032FCA0B10289B1B2914228BF1646F4E7654890F82C100F2906D190F8260070
:2037BC00022802D300201FF0EBFF84F00105A4E0A8B2B1B2814223D9D6FA55F0202180B2D3
:2037DC004200387824F044FA24F093FA054623F067FF68434FF47A71B0FBF1F615E0534829
:2037FC00007818B302AD284624F0A7F923F082FF4F490B784F490A7829461AF06BF822E0F2
:20381C003878202119F092F80026C8F8086084F0200572E000259CE715F052F984F40075EA
:20383C006BE008F0E5FA84F0100566E03E48418B012024F08CFA2878022804D13148012134
:20385C00007819F043FD84F0020556E03248012184F00805817050E00CF056F984F0400598
:20387C004BE0022808BF15F06FFB2F480121808C24F05FFA84F480653FE022F059FF84F035
:20389C0080053AE021F00CFA84F4807535E01AF08BFD2048007801280CD11D48007848B186
:2038BC004FF47A7100FB01F216484FF40061007824F0CBF984F400651FE01748017819B100
:2038DC00002101701AF070FD84F4805515E01448006880B11149097801290CD1804711488A
:2038FC00006800B1804707484FF480414FF47A72007824F0AAF984F4804528460FB0BDE80C
:20391C00F08F00BFC5D2002044900200300C0020310E0020320E0020E80B00202F0E002035
:20393C0094090020A009002098C500200D0E0020350E0020370E00202DE9FE4F8846080428
:20395C0026D45FEAC87004BF0020BDE8FE8FE548056824F0CEF9044623F0A2FE60434FF463
:20397C007A714FF6FF72B0FBF1F14FF6FF70002D00F01A812B886C88CB1A9BB29C4240F2A8
:20399C001C81E31A94B2A342B8BF1A46ED68EEE7DFF840A3CDF804809AF8000019F0C4FCE7
:2039BC00002800F0FC8006460078012840F0EC80DAF8041096F83390D6F814B096F81380E4
:2039DC0021B148468847002840F0DE80718896F83100022221F0C4F80546002842D0287A16
:2039FC00297CA0F10108FF2900F0BB80707F4F46C00718BF0027E97C287D0144B94204D8AA
:203A1C00E974FF2101FA00F06874A969A87C96F83020896A10FB0710F16A23F083FC287D8B
:203A3C00697CB7FBF0F202FB107001228240D2B20A436A74C8457CD196F83010AB7C13FB83
:203A5C000713A9698B844FF4FF7303FA00F0C0B21043FF2868746CD1287C19F093FFFF200A
:203A7C0028747FE0707FC00700F08E80B07F23F0E9FC002800F0888004461C2024F071F930
:203A9C00002800F081801C21054623F0F7FAB07F02A921F06FFF9DF8090002212875284640
:203ABC0021F0BEFF708896F8312096F8301096F83330A880287DEA71FF2202FA00F0687475
:203ADC0060680078A9742874302013FB010080B221F064FC0028A8615DD004461A20B11C20
:203AFC002060708CA080A01D22F07CFCF27F04F13000B17F96F82830C4F81CB084F819807E
:203B1C00A062307CE273744A217563750121A075928C2282F28EA285F28C6282B6F8110099
:203B3C00A4F817009AF8000085F8089018F0FEFE55E724F0DEF8044623F0B2FD60434FF4F3
:203B5C007A71B0FBF1F0654928806348097800794843642148436249097800FB010068802C
:203B7C0000E04F46E87C297D6A7C01440139B94218BFFF2A0CD186F83300708806F11C01B0
:203B9C0086F8342016F0B7FB304622F083FA03E7C845F9D1EFE7284621F052FFF4E701989F
:203BBC0080F40040BDE8FE8F92B282424BD049480121007824F04CF845E0A879022806D116
:203BDC00287CFF2837D0A86922F064FA33E024F090F8044623F064FD60434FF47A71B0FB8D
:203BFC00F1F03F49288095F83800097888421BD295F83620FF2A06D195F83720013085F826
:203C1C00380085F8362095F8351095F8394082F0FF0300200126C7B2A7421DD206FA07F79B
:203C3C001F4214D10130F6E7EA8BA87E95F82A10E9231DF09DFF284621F002FF25480121EE
:203C5C00007818F073FE88F00100BDE8FE8FFBB201441A4385F83620AB8F95F83440C8B2D5
:203C7C0004FB10339EB2A64203D2FF2285F8362002E0FF2A08D12346184A174E1278367998
:203C9C0072436426724302E095F83A2023466A802A8D0E0606D022F0200244432A852A6C57
:203CBC00224404E042F020012A6C2985297A85F82E10E9796A6285F82D10D9B269840549FB
:203CDC00496811B188470028B8D105F1100004F02BFEB3E7540C002098C50020250E0020C8
:203CFC002B0E0020F4AE00207FB50138072800F24C810C46DFE810F008002C0054006E0023
:203D1C0089004901A600C900CB4800780138012800F23B81002C00F047810020032100245E
:203D3C001EF006F9C64DC74E0420042132222870307823F08DFF0820002107F0BBF830781B
:203D5C006C704FF4805104B0BDE8704019F0BEBA0020002523F07EFBBB4801210170042042
:203D7C008DF80D0074B1B548B34C45852078012803D1072022F034F82078022802D10620F5
:203D9C0022F02EF8AE48042132220570AD48007823F05EFFA94890F82B1001F0FE01F2E098
:203DBC00A54800780138012800F2EF80A54804213222007823F04CFF002C00F00F819F4CEC
:203DDC009F48012101702069002800F0EC801EF035FCF8E70120002C8DF80D007BD0974819
:203DFC0000219B4A80F82A10984823F0E9FC924C2078012803D1072021F0F2FF20780228B9
:203E1C0070D1062021F0ECFF6CE002208DF80D008A48002C73D000218D4A80F82A108B4865
:203E3C0023F0CEFC002003211EF082F8824C2078012803D1072021F0D3FF2078002877D148
:203E5C00092073E07C4D00208DF80D00002C28787BD018B9092021F0C3FF2878022806D1CA
:203E7C000820002107F026F8042021F0B9FF10F0E1FD73480021C822017070480D2180F868
:203E9C002A10704823F075FE78E005208DF80D0069480078022878D1002C00F0C3806848D4
:203EBC000022C178C270017042F20800002107F001F862480D2190F82B2080F82A10C17805
:203EDC0002F0DF02002980F82B200CBF04200D2021F086FF59E05848007818B95748022171
:203EFC0080F82A105648002132220170554823F040FE524890F82B1001F0FD0143E00821EA
:203F1C0080F82A104C490978012911D890F82E0070B900200DF10A018DF80A0052201CF095
:203F3C001FFD23F00FF81DF07FFC002021F058FF4348002132220170424823F01AFE3F4872
:203F5C0090F82B1001F0FB011DE03C4C022812D194F82E0078B194F82B00002140F02000F8
:203F7C0084F82B0005208DF80D00082006F0A2FF0A2021F035FF022084F82A002F4890F8D2
:203F9C002B1001F0EF0180F82B102C480022032390F82A008DF80C002A48007803A9009110
:203FBC000A211DF032FB7FBD244C0720254D4FF4805184F82A0001208DF80D00287819F025
:203FDC0085F90020002620F06FFF2878022141F2883284F82B6023F03BFED6E7174C02203E
:203FFC0000218DF80B1084F82A001548017094F82B000DF10B0100F0FD0084F82B000120FA
:20401C008DF80D0052201CF0ABFC22F09BFF1DF00BFC002021F0E4FE20690028B5D01EF0B6
:20403C000DFBF9E70548022180F82A1090F82B1041F02001A7E700BF300C0020F007002085
:20405C003CD20020CCD20020220E002098C50020F60D002092B0DFF8EC92D9F8000010B13F
:20407C00002180F8451048301FF09AFD23F04FFE8046072010F042FE17F0D8F910B1B248F8
:20409C0024F04AF819F002FD01AD284623F0BAF90427002029468DF8047023F0BBF9AB4C53
:2040BC00206022F0F1FD0AAD284623F073F8002029468DF8287023F075F8A54E306022F000
:2040DC00EDFD06AD284623F075F8002029468DF8187023F077F831689E4D286019B99E4857
:2040FC0024F01AF8286810B99C4824F015F8206810B99B4824F010F81BF04EFFD9F80000A7
:20411C004FF0FF3438B1CDE9104410A9082222F05FF801281BD1CDE91044082023F021FE59
:20413C00002846D005460026052E04D823F0C5FCA8530236F8E74FF6300029460822E88049
:20415C00884823F0EFF8284623F009FE09E0D9F80010CDE910440029DFD08248082223F03E
:20417C00E1F810AA0120082123F0FCFB092800D0D8B920F0DFFC800712D4CDE91044CDE992
:20419C000E440EAB01200021082222F05DFF60B90EA810A9082222F01BF8002800F0CB80E4
:2041BC00704A0120082123F0E3FB6E49E2201CF0D7FB12F05DF9282023F0D3FD6A4E0028F4
:2041DC00306055D0694F6A4C07F10C0523F0CDFC23F040F83068056007F1100523F0C5FC92
:2041FC0064498968D1F84C1388473068456007F1140523F0BAFC1BF08FFA3068856007F1EE
:20421C00180523F0B2FC18F01FFF3068C56007F11C0523F0AAFC1EF057FC3068056107F198
:20423C00200523F0A2FC1DF095FB3068456107F1240523F09AFC1CF00BFB3068856107F15F
:20425C00280523F092FC22F0F7FA3068C56107F12C0523F08AFC1FF02BFC3068056207F1C4
:20427C00300523F082FC387022F030FE3068456218F0E6F8404841494FF00009CDF8409060
:20429C0001603F480321119010A81FF061FA23F09AF9404623F043FD17F0D6F923F030FC9F
:2042BC0001201CF0F5FF19F0F7F837480078022808D134480078012804D14FF40040012138
:2042DC0006F0F8FD294F4FF48041387823F08AFA2E484FF0FF31006823F01AFFDFF8B08094
:2042FC0078684FF0FF3123F013FF3068002550F82510096821B9691C092D0D46F7D3EFE7FB
:20431C0022F0F7FE316851F825100C68C1F8009022F05AFD58F82520002021469047044600
:20433C0022F0E7FE316851F825100A6822430A6022F04AFDD4E70B480EA9082222F0F2FFC7
:20435C0033E700BFC40D00200491020024D2002028D200202CD20020229102003591020015
:20437C0048910200D3D10020A0D200201C040020552D02000C010020AC09002071B3010005
:20439C00008D15004A0E0020300C00207CD20020CC9302002DE9F04F89B08A4608040DD471
:2043BC005FEACA7040F01D815FEA8A7000F12B815FEA0A7000F13381002042E1A24F387864
:2043DC0018F0B2FFDFF88892A04C06464FF0000B48F21508002E00F001813078312838D095
:2043FC00322849D0D32840F0B380F089404573D0382840F0AD80CDF820B0CDE906BB304650
:20441C0006A91FF0ADFA9DF81C10052968D8307B002840F09D809DF81D00002800F09880EA
:20443C00052800F29580069822F0BFFB002840F08F80707C87497870708808809DF81D0085
:20445C00214601388DF81D0006A890E82C002CC17EE0B87803287BD899F82E10804822F00A
:20447C00A4FB002874D1FF207C49607170880880B088794908806BE06079FF2814D000200E
:20449C0015F0C2FE0246B9F8701078783346CDF800B012F035FB6079002859D038780821AF
:2044BC00322223F0D5FB53E099F81810706820FA01F2D2071ABF3144097A002106F108020C
:2044DC0000231B2B42D020FA03F5ED0702D0D55CA9421ED80133F4E7304620F045FC37E06E
:2044FC00FF293DD0FE2956D199F872109DF81E00884202D860BBFF292AD11CF033F806999F
:20451C0000201B2859D021FA00F2D20757D10130F7E7B9F86E004F49334608804E480288FE
:20453C004E48018810200090002012F0E9FA0120F870B87840B93C2002214EF66022B8804C
:20455C00387823F085FBB8780130B87084F805B0304621F09FFD387818F0E6FE064639E717
:20457C0099F872109DF81E00884203D80028EFD1FF29EDD11BF0F6FF069838B1D9F8281056
:20459C00814203D0C9F8280021F03AFCBDF8200022F08EF9DCE7307B0028D9D170882D491D
:2045BC00802200230880707CCDE900BBCDE902BBCDE904BB11F0B0F9CAE71B2000E0C0B265
:2045DC0099F818108142C3D02649087099F80700642100FB01F23878012162E78AF40040E5
:2045FC002FE020491A4C08782076E1201CF0B8F921F006FC0020A4F87000012015F004FE86
:20461C008AF001001DE010488188B1B101394EF6602281800078022123F01AFB0FE00B4C39
:20463C00607938B12179206822F0BFFA10B96079013860718AF0080003E0002181708AF012
:20465C00020009B0BDE8F08FDC0A00206CD1002098C50020A6D10020DED00020DACC002054
:20467C0000F8FF07C8D200202DE9FE4F074608680024B0B1D7E9018A0E4623F048FB814605
:20469C00D8F8E800082888BF0124B068204202D17068204208D003203074484623F03FFBA9
:2046BC0000242046BDE8FE8FD8F8C01069B198F8F8100029EFD006213174D8F8C410C8F8B8
:2046DC00C4604E6198F8FC100DE000210522C8E93066C8E93411C8E9361198F8FC10002920
:2046FC0008BF0122327400220129726109D102204FF4E02188F8FC0098F8FB001EF038FF63
:20471C00706889490138884205D804201FF068F806201FF065F802201FF062F898F8F800BB
:20473C0040B9DAF83C003168814203D298F8FC0000286CD0D8E9361009B118B900E028B3E8
:20475C0023F01BFADAF80000416941F001014161484623F0E4FA98F8F80008B10124A0E758
:20477C0008F16C05D8F8EC10284622F04BFB0028F4D0D8F8C0000321017438460AF028F973
:20479C0028460021002422F03DFB8AE79AF8040023F0BFFA654CDAF810100222206991FA52
:2047BC00A1F1B1FA81F14368D8F8CC004068006898472069DAF8141002224368D8F8CC000E
:2047DC0091FAA1F1B1FA81F14068006898479AF8040023F098FA9AF8040023F09CFA23F007
:2047FC00CCF90020C8F8E000D8F8C0000068B0F5806F01D923F0C1F998F8FE000028A1D1BD
:20481C00DAF80000416841F0020141609AE798F8F90020B1D8F8EC0001307FF48BAF484629
:20483C0023F07DFAB2683AB1D8F8E8000221092838BF0121009103E008F1F4020020009095
:20485C00746834B1D8F8E8000227092838BF012702E008F1F6040027DAF80000334D416853
:20487C0041F002014160D6F800B0D946BBF1000F40D0D8F8E800019209284FF0010011D240
:20489C002A68B9F1000F1FD0C0071DD02178DAF800009268904700281EBF3C44A9F10109A9
:2048BC000120EDE72A68B9F1000F16D0C00714D02188DAF800009268904700281EBF3C443A
:2048DC00A9F101090120EDE7DAF80000D26802A99047DDE90120107007E0DAF80000D2683B
:2048FC0002A99047DDE9012010800098ABF1010B0244BBE7D8F8F000DAF80010CA68024065
:20491C00102802D1002AF9D101E0002AF6D0706820F03CFFD8F8C0100020C8F8C400C8F884
:20493C00C00008741AE700BFFEFFFF0FC40100102DE9F04F85B08846080418D4A9480078C6
:20495C00012802D85FEAC87155D15FEA88714CD4022807D1A4480078012803D15FEA4870CA
:20497C0000F188805FEA087057D400202BE1DFF85CA29AF8000018F0D7FC002800F021810E
:20499C000546807FC8B9688C132816D190486E8800F11C09002049464F46002818BF071DCF
:2049BC00086850B1014631F8042BB242F4D144683C6023F0D4F92046F3E7A87A05F1020B85
:2049DC00022840F0E480DFF8089295F83170BBF8006009F11C000068A0B10188B14202D12D
:2049FC008178B94242D00430F5E779480121017088F00200E7E07648406900B1804788F099
:204A1C000100E0E0D9F81C40002C57D001206168002955D001300C46F9E77048DFF8B091CE
:204A3C00807BD9F81C60000760D423F062F9044622F036FE6A4A60434FF47A71B0FBF1F0C8
:204A5C00D9F818101288411A91427AD3B1FBF2FB0BFB02F2511A08445E49C9F818001FFA49
:204A7C008BF00978884288BF8B4641E059490978C170A3E05E495D4800224FF6FE730024FC
:204A9C000978023079B130F8025C9D4208D04588013D45802D0406BF027020F8023C01242D
:204ABC0001390630EEE734B1484804214FF4FA72007823F0CDF888F0040084E000240020D8
:204ADC00454980B20988884261D2082023F049F900285CD000210680877041603D49097855
:204AFC00C170D9F81C1079B360603FE04FF0010B00205FFA8BF44FF0000A071D002808BFC2
:204B1C0009F11C0796B1F078C0FA5BF1A042F17006D8756830463D6023F021F92E46F1E71D
:204B3C00716830460AF1010A0E46E6E75FEA0A4007D100200821C9F818002448007818F06A
:204B5C00C5FB88F008003EE0C9F81C002348807B00070BD423F0CDF8044622F0A1FD60433D
:204B7C004FF47A71B0FBF1F0C9F818001B48807B00070CD59AF8000008211CF0E9F930B9AE
:204B9C001748082102889AF8000023F05EF82878022810D0012811D1297EAA89EB7C05F100
:204BBC001C006C696E7E8DE85A0005F11003594605F066FB02E0284614F0EEFE284621F070
:204BDC0069FA88F4004005B0BDE8F08FC2D20020140A00202A0E0020F00D002098C50020DD
:204BFC00F40D0020300C00204A0E00200CC60020070E00202DE9F04F8DB0A24E0546A24FBF
:204C1C0030780328387040F0AF8000200021182208233070387001AC204621F015FF204612
:204C3C0000211FF049FE994CB8602E21204622F025FA4FF0FF30A0822061E0601FF050FB53
:204C5C00002029461AF068FF07F11001F86022F0DBFFD7E905128E4DB1FBF2F0C0B202280F
:204C7C0028BF022020702870B2F5005F7AD1B1EB403F77D3F968002974D04FF6FF71002787
:204C9C004FF088586FF0030B61808249616087426DD2FEB200210CAA0423304622F012FBB4
:204CBC0007EB470004EB800A0C98D14600F47C0129F8160FB1F5402F04D000F07F41B1F179
:204CDC00164F3ED1C0F301418AF819106FF0FD0151FA80F21021022A31D3C2B27E2A2ED00F
:204CFC0007A81DF0EBFA304600214FF088524FF400534FF4005522F0E5FA1BFA85F5A8B23F
:204D1C0050F808104A1C01D10328F6D801220126D3B2042B06D8CBB2FF2B18BF16460132FD
:204D3C00090AF5E740F808105C480799006842685B48904755FA86F199F80000544DAAF8AE
:204D5C001C10C0B2702807D0782803D0FE2805D07C2804D1E77002E0277100E0A7702878DB
:204D7C00013794E7012030700DB0BDE8F08FE178FF2903D0DFF81081012529E02179FF2915
:204D9C0004D0DFF80481E170022521E0A178DFF8F880FF290ED00131B1FBF0F202FB101003
:204DBC0000EB400104EB8101898B09B1E070EBE7FF20A07000250020E57011F0BDFD98F836
:204DDC00001008437E2188F8000000201DF080FFA078FF2813D12E48E17800780131B1FB49
:204DFC00F0F202FB1010A07011F0A6FD98F800100843FE2188F80000A0781DF069FF26485F
:204E1C00E278022D057002EB4200627004EB8000818BE18028D0012D2BD107AD002788B264
:204E3C00182826D30739D0B22A4689B213F07AFC9DF82700400717D5E088BDF82A10E67893
:204E5C002A4603230097401A073881B2304608F06BF9E27820B9BDF8281009B196420BD0DE
:204E7C00964206D0E188DAE701206071002000F0C3FA98F8000077E79DF82C001AF0BCF812
:204E9C00F7E700BFFE0D0020D8000020ACCC0020C4D20020FF000020D0D20020D80100101E
:204EBC00004003402DE9F04F87B0851C8346284622F09BFE01AC06461821204622F0DEF8C4
:204EDC009BF801A004F10B002946009522F005FF6FF001009BF80A1002240122ADF8180055
:204EFC0000208DF81A408DF80C0001F00800C1F3C007890782EAD00507D4002808BF0124D2
:204F1C00B946A8460027002507E004244FF000094FF00008002808BF03248548007850EA09
:204F3C000A000BD0834890F82600082809D122F059F900285AD0BAF1010F57D14FF0C30949
:204F5C0001E04FF0C2090025BAF1000F10D07F48007890B9BAF1010F0FD1002E55D00020F5
:204F7C00214601228DF81A0001A813F06DFE0AE001A81AF097F986B91CE001A821465246C5
:204F9C0013F062FEB6B17179BAF1020F41F04002727104BF41F0600171719BF80A104906FC
:204FBC0003D5717941F080017171B17900240131B17100E00124B0FA80F149090D422CD11F
:204FDC0007D1002D18BF814641F20100494616F0B2F814B9009818F0CDFBBDF818004FF658
:204FFC00FE71884218BF22F0C6FE16E0DEB33279A24218BFBAF1020F12D1D01EC0B201289A
:20501C001BD857EA050020D12AE00220214601228DF81A0001A813F017FE07B0BDE8F08F59
:20503C004FF00009009953468DF81A903088ADF8180022F080FE012586E7501EC0B201280A
:20505C000ED849EA0800012807D130881FF0A4FF50B93088ADF8180008E0308822F08BFEEF
:20507C00009818F087FB0026BDF818004FF6FE7188421ED11FF09CFD10B1BDF8180011E06B
:20509C00BAF1000F04D02C4D28881FF085FF30B19BF80A0000F002001EF0D2FB00E02888CF
:2050BC00ADF818004FF6FE71884202D14FF0C70949E79BF80A200099534622F03CFE10B18B
:2050DC004FF001093FE71D48016811B1BDF818008847BDF818000099224606F05BF80646B6
:2050FC00174818490A6800784FF4803122F0B0FD01211548C17096B1AAF10100C0B2012809
:20511C0007D81020BAF1020F08BF08207179084370714FF0000901258DF81A9014E74FF6C6
:20513C00FE7000254FF001090026ADF818000BE7040B002098C50020E80D0020A809002010
:20515C00C5D2002084970200E80B0020300C00202DE9F04F85B0BAB1D0E9008A0DF11009A1
:20517C00002B14460D46074618BF994622F0CFFD064698F8070050B198F82C0160B122F096
:20519C0046FD6FF008041DE16FF009041AE122F03EFD6FF00E0415E1012088F82C0100203E
:2051BC00C8E94C54C8F8384188F80B00C8F84001C8F83C0088F80D00504622F061FB22F01E
:2051DC0026FD21F0A7FD98F8052008B9002A77D00E99CDE90197481E10F1030F08D83AB9B3
:2051FC0008F5CA74204622F088FD204622F087FD08F58A7408F5A27622F089FD07460DF16C
:20521C000C0BD8F83801002800F0BE8098F80B00002840F08D8098F80D00002840F08F80F8
:20523C0030460021B14621F0EDFD22F008FD204659461EF006FF074622F069FD0646D8F8B9
:20525C003801D8F84011874288BF0746039829443A4622F013FE204639461DF0D7F8D8F83F
:20527C003801D8F84011C01BC8F83801C819C8F8400122F0CCFC012F03DBD8F838010028E9
:20529C00D5D122F044FD0746D8F8400128B1504622F0F6FA029810F0BFFE98F80500012815
:2052BC0051D0022866D0D8F838114E4600296AD022F0C5FC22F0C5FB22F029FD0746A0E790
:2052DC0098F84400C00615D5D8F84060D8F84830384610210022B0470CE0D8F8400121464A
:2052FC002A1850461DF0AAFDD8F84011241A0144C8F84011002CF0D1504622F093F8002809
:20531C00FAD0504622F0B0FA98F84400800607D5D8F84040D8F84830384620210022A047BF
:20533C00002488F82C41D8F84001C9F8000049E00020019E6FF00D0488F80B0032E0019EDA
:20535C006FF00C042EE0D8F838010024019EA0BB384688F82C4122F0E2FC98F81100DDF8BC
:20537C0008904FF0010A88F812A078B3002422F0CEFC16E0D8F840010024002808BF6FF059
:20539C000F04019E12E010B1019E00240AE022F056FC22F056FB22F054FB002422F0B7FCCE
:2053BC00019E074698F80500012806D0002088F82C0108F5CA7022F0A4FCD8F840013060FA
:2053DC0022F03DFC204605B0BDE8F08F002401200028CBD0D8F84830D8F84021D8F8D8718D
:2053FC0048462946A8F811A00094B84798F8120088F81140ECE770472DE9F04F97B0DFF840
:20541C0084828246D8F8040018B18047002800F0D9809D4F01200021042300247E78F873F3
:20543C00BD7808AA304621F04DFF9DF82200800703D07879002800F0C68030460621F8227F
:20545C004FF0F80920F0B6FE06EB460407EB840080F818909DF82000702803D03046702134
:20547C001DF036FCCDF810A0069608AA2846002104234FF0000921F025FF9DF82000FE2800
:20549C0003D02846FE211DF023FC28460621FE22FE2620F08FFE07F11600BA7888F800909E
:2054BC00059500EB8401C9880192798205EB4501039100EB810101F8026F7E78029106EBCC
:2054DC00460100EB8101B1F806A002EB420100EB810030F8061F079100900EA81CF0EEFEEE
:2054FC000DF124090FAD1FFA8AF0172860D398F80000002860D1AAF1070B30464A461FFAEF
:20551C008BF7394613F00EF9BDF8324004F11000B8421BD89DF82E00962817D19DF82F001E
:20553C00C10742D1800740D5ABEB0400C1469DF82D20214633461FFA80F8404616F024F93B
:20555C0008B3C846AAF1080B0DF124095C46A0B216282ED93628A4F1160730462A4688BF17
:20557C002027E41BBBB2A1B221F0ACFE3804EED015FA87F010F8010C962801D0013FF5E70E
:20559C0007EB040AAFE704F1070A079F41491FFA8AF313FA87F00A1A3046414621F092FE47
:2055BC005744C8460DF124090797ABEB040A9AE7D34698F8000050B134480E990068426859
:2055DC0033489047002420B217B0BDE8F08F079E019C1021C6F50052A6F1100083B2C1F26D
:2055FC00001220461CF086FE98F8001008430E9988F8000025480068426825489047224D43
:20561C0000980123B5F91220697B06802046A5F814B02E821EF04EFEB5F91420A97B20462B
:20563C0002231EF047FE049A002A08BF1022288A7C21C0F500509042B8BF7821059F3846BD
:20565C001DF046FB069E304611F076F988F8000038460621FC22FC2420F0ACFD0298FE2181
:20567C00AE70EF706F700470039805EB8000808BE88030461DF02CFB00206871E888C0F5F8
:20569C000054A0E7D8000020ACCC0020D801001000400340002000112DE9F04F8DB004460A
:2056BC0000209A4616460F46CDE90B00CDE909008748856880460FF035FF262803D00FF0C8
:2056DC0031FF25281BD1308840F60201884218BFB0F5C15F03D1F07B022810D93EE043F645
:2056FC00070188420BD196F82400032807D33069784940F0806020F0604088422ED1002026
:20571C006FB366B3387825FA00F0C00726D03046002122F020FB7048C4E90176006880B17D
:20573C0009A800900CA90BAA0AAB304609F016FC0B980B214FF6FF72502320F051FAFF28F2
:20575C000CD022F0E4FA654F06467878012802D840B1012070E0304622F0E1FA00200DB0CC
:20577C00BDE8F08F09F06EFB5D480DF10409016841F0020101605B48C8F80000484621F0D7
:20579C0031FEDFF864B15A494A469BF801009BF800500390554828301AF0BAFA55485649A6
:2057BC004A461AF0B5FA484621F03CFDDFF84C81534A19214B46029540461AF01FF8514AC7
:2057DC0008F11C001A214B461AF018F84E484F4922F0E3F94E484F4922F0DFF94E48006880
:2057FC0010F4402F06D04D4A07F12800042100231FF02EFE9BF8020010B10D200FF07EFA10
:20581C0008F1400021F0BBF908F1380021F0B7F94349002007223876B8843862386181F811
:20583C0060200521C7E902103E49F96138700420002120F095FA78782C4941F82040013048
:20585C007870304622F06BFABAF1000F06D10DF1040A35492022504622F010FBDAE9001272
:20587C00BAF81000DAE90635002AB2FA82F608BF40F6C41262612160608325637609267661
:20589C004FF4FA76C4E9036201226276274AC4E90722C4E90923DAF80C0000B12062DAF829
:2058BC00140000B16062DAF8080000B1E06104F13800C82121F0E2FB04F1500000211FF000
:2058DC006AFC1B4904F1B80022F067F9204646E7CC2108400F0000058C0C0020F804002013
:2058FC0000200940110000E0B09602006005002095620200C8CA0020593D010020060020DD
:20591C0075C00100CDA5010004CA002091540200C0C9002041620200B44F005091EA0100D0
:20593C0078C600201DFA000098940200E7980000977C02002DE9F04F85B0D0E900498046C2
:20595C00D9F80000D0F840A01AF4F06FC0F844A039D0216CB9B300225FEA4A512260A2730A
:20597C0017D5D4E91401411A40461EF011FDD9F800008169C90605D401688DF80B109DF84F
:20599C000B10F6E721684A1CA17B226009B90121A173616C40684FF0004600F00F0505EA81
:2059BC000100B0FA80F126FA01F1014004D0276C17B1A36C4046B847B5FA85F026FA00F065
:2059DC0028404042A063D4F8E001D9F83C100AF0400B40680068D0F80425114051EA0B0116
:2059FC0065D0404618F00AFD59464046BBF1000F18BF01210FF040FE207901284AD1206F3F
:205A1C00002847D0CDF80490D8F8009004AE09F14C05284631461FF07AFFD9F8701007466A
:205A3C00D9F86800D9F878208F4288BF0F46049910443A4622F022FA284639461EF0EAFABD
:205A5C00D9F87000D9F87810C01B3944C9F87000C9F878100FB10028DBD1404618F0CEFCD2
:205A7C00404600210FF008FEDDF80490BBF1000F02D0A079012801D0206F58B90020A36C86
:205A9C00A16EA26FD4F81051206784F8640000904046A847BBF1000F1CBF0120E07404F131
:205ABC007C0022F06EF9D4F8E0014068006800F204500068D9F83810084255D0D4F83C01D9
:205ADC00002851D0404616F091FF404610F0A4FA607901283BD1D4F83801C0B304F58A75A3
:205AFC0003A928461EF0ADFA0646D4F83801D4F83011D4F84021864288BF064603981144E5
:205B1C00324622F0BBF9284631461CF07FFCD4F83801D4F84011801B3144C4F83801404612
:205B3C00C4F8401110F078FAD4F8380178B994F82C0160B1002084F82C01A36CD4F83011E5
:205B5C00D4F84021D4F8D85100904046A847D4F83C0128B9D9F80000816B41F400618163E1
:205B7C0004F5A27022F00DF95FEA0A5026D5D9F8000081690907FCD4016B21F480710163D7
:205B9C00217A89B10020207294F84400800606D5256C25B1A36C404620210022A8470220C1
:205BBC001DF0E4F8D9F80000816B21F400618163607918B904F5A27022F0E3F805B0BDE8CD
:205BDC00F08F70472DE9FC470446019005789448465D9448E840ADF80260C00740F01E81A2
:205BFC000D2D13D1904E0DF10201B068D0F8282453209047BDF802104FF6FD70814214D8EE
:205C1C00208990B14FF0000AA146AEE00C2D0ED0072D13D0052D0ED1A078012800F0FE80D2
:205C3C00207C304400F1240716E0B068CDE06068C08AC0050AD44FF0000A09E0A07848B169
:205C5C00A07D00EBC00006EB800705E04FF0010A374605E006F11B07ADF802704FF0000ADE
:205C7C0038461FF09BFB38B38146072D44D1207889F80000607889F80100A07889F80200DC
:205C9C000028E17889F80310D4F80510C9F804105AD0A07D002889F8080049D0A1690029D9
:205CBC0046D000EBC00009F110068200304621F039FBC9F80C6040E00C2D40F0AF80A146EE
:205CDC0059F8040F002800F0A98022F020F8804655488068D0F854134846884738461FF075
:205CFC005DFB8146404622F01AF8B9F1000F00F0958021F092FE38E021F08FFE052D34D173
:205D1C0009F11806D9F804102422304621F00AFBD9F8141099F8102009F13C00C9F8046087
:205D3C0021F000FBD9F804002430C9F814001CE0002089F80800C9F80C00A069A8B122F057
:205D5C000EF80020A0750FE01B2009F110061B2289F808003046A16921F0E4FAC9F80C6050
:205D7C00A06921F0FCFF0020A0613048016819B148468847002846D10D2D2BD16068017813
:205D9C008A0720D42A4AC1F38301927C91421AD140783F2817D894F83000022813D199F881
:205DBC00470009F146011CF0F5FB01984FF6FF72418E91421FD14068807902281BD348461B
:205DDC0018F0C0FC50B318488068D0F8541301A8884723E00C2D0ED160781A280BD0D9F810
:205DFC00040040B1C08AC00705D099F8100009F10F011CF0CFFBBAF1000F04D10D484946B8
:205E1C00007817F0BFFD0C2D08D1019850F8041F21B105498968D1F85413D9E7BDE8FC87EC
:205E3C00E495020019C206000C010020C00D002098C50020C5D200202DE9F04F8DB00646BE
:205E5C00806A447874B18D4909788C4280F012818B49023022462AB130F8023B013A21F831
:205E7C00023BF8E78748C18A708988422FD183480078A04240F2FE80B589814A214628465A
:205E9C0020F05CFA284615F01FFD064682480778BE4204D14FF6FE7015F016FD0646BE4270
:205EBC0080F0E880DFF8F48108EBC6094F4657F8040F08B121F053FF002C00F0B180600020
:205EDC0021F04FFF0028386040F0AC80D2E0B27C002A00F0CF806A4F0025AC4205D037F812
:205EFC0015208A4203D00135F7E7A04600E0A846002112F069FF002800F0AD80814640799A
:205F1C00012840F0A88099F8060010F0180F00F0A280B9F80210204620F0FEFAA54202D327
:205F3C00002800F098805848CDE90498B6F80C904FF6FE7A00780890544800780A9000203E
:205F5C0006960B9052481130099052480430079000200C90DDE909564FF0000BF6B135F816
:205F7C00117C574518BF4F4502D1013E1C35F5E72046394620F0D0FA0028F6D128780138AB
:205F9C000528F2D80C980BF1010BC007EDD00B985FFA8BF1C0B28142E7D356E0DDE90786CE
:205FBC002EB338F8047C574518BF4F4503D1013E08F12408F4E72046394620F0ADFA002856
:205FDC00F5D198F8050001380528F0D898F8000001380228EBD30C980BF1010BC007E6D042
:205FFC000B985FFA8BF1C0B28142E0D32DE05FEA0B6028D00B98000625D101205FFA8BF5D3
:20601C000B90012D4FF001000C90A3D021F055FDC0B2B0FBF5F101FB15000B90012098E79A
:20603C00002038601E4989F80140A9F80250097808F83610F4B1E8B1114962000DB0BDE84D
:20605C00F04F21F06FB94FF6FE770498069EDDF8148047800A4FB37CF47CB269B18901250F
:20607C00581EB07470895FFA88F68DE8D00003950FF04AFD0DB0BDE8F08F00BFAB97020093
:20609C0028D0002098C50020B6970200A497020074B7002000AC0020AA970200E0C60020A3
:2060BC00430E00202DE9F04F87B005462C200E4621F057FE002844D0778B044621F02CFBB6
:2060DC000021E1840121874208BF02212170707BA0703169081A6060204617F053F93178DF
:2060FC00834F01F00301387B012908BF05206070C0B221F067F94FF0FF316077A182217F38
:20611C00326908440A44317D3261081A3075E070A069013017D0207C032816D8DFE800F049
:20613C0002170209062021466082284615F036FE10B3042021466082284607F0C9F9054667
:20615C001BE01025CFE0A32517E0A12515E00020B3256082F87A80B997F8410001280CD16F
:20617C00A07D4FF6FF7618F0ADFC0025A082B04208BF6FF05E0500E000252078022807D11A
:20619C0004F1080620F0F8FD0146304621F0A5FD280640F0A580574F3878013801281AD83E
:2061BC0094F8260010B994F82700A0B1A078E178227F08441044043021F0D3FD58B1A1785B
:2061DC00E2780646207F114408446168021D304621F0A8F800E0002620460DF02DFC0546D1
:2061FC003878012802D12DB9002575E0022873D1002D71D0002E73D00DF1080800274FF0B6
:20621C00010B4FF4D00908F1080A94F8260018B994F8270000285FD0A178E278207F11443B
:20623C0008443146021D606821F07CF894F8260020B184F82670C4F8129007E094F8270086
:20625C0020B12D4884F82770C4F8120020460DF0F3FB10B10021054639E04046142120F099
:20627C000DFF608A8DF819B0F0B9A08A40F20311884216D0682817D16068C17B052929D151
:20629C002A30FF21082220F09BFC18B34FF0FF306946CDE900001948006821F01EFDFC20E8
:2062BC0000E0FF208DF81800504669460022002512F072F901469DF8000038B1042014220E
:2062DC0043461EF0CDFA0321002500E0032103299BD101E00221FAE716B1304621F03FFDF0
:2062FC00204621F03CFDE8B207B0BDE8F08F00BF98C50020300C00200000030114D20020BB
:20631C002DE9F04F93B004461DF008F808B1112006E1207F4FF6FE75B8B18348007881001D
:20633C0041EA401061882077FF201EF0A9FD002180B1E08A05F1010B012640F00400E082F8
:20635C00207F40F00100207707E0002000264FF6FE7B08E000264FF6FE7B744800780228A5
:20637C0038BF012188010490678838461BF036FF08B10020607694F81AA0BAF1000F04D19A
:20639C006B4890F800A084F81AA094F90000C5B2B0F1FF3F07DDE07E40B966480178E17634
:2063BC000131017002E005F003052570207EDFF88491012805D199F80B0010B90DB90020D6
:2063DC002076DFF8688198F80000012831D899F80E0080072DD5E6B1E08A410606D5BAF193
:2063FC00010F03D120F00400E08222E0A188E07E627DADF822708DF82AA0ADF824108DF8DB
:20641C002B0006A803F072FE00283FF480AF25780FE038461BF0E2FE58B1002DDCD020693A
:20643C0000780A2805D8012101FA00F010F4836FD2D14FF6FE7A012D07D120690078022825
:20645C0003D1E08A40F04000E082EEBBE08A10F0400039D198F80000012835D899F80E004E
:20647C00800731D5049DA71D6188607E3A462B4612F0EAFC28B100206076E08A40F02000E5
:20649C00E082387870B1618804F108001BF072F983466088834504BF00203870E08A40F0B3
:2064BC004000E0822078012804D0A18860882A460EF036FFA18860882A460CF0EBFC18B1A8
:2064DC00E08A40F02000E0820DF11701204605F02BF906461FFA8BF0504508BFB4F802B055
:2064FC00EEB12078617D94F82C50B9F816209DF8173007948DF81800608DADF81A00E08A52
:20651C0006ACCDE90254CDE900101FFA8BF130460AF0B6FD102803D1304621F020FC102044
:20653C0013B0BDE8F08F00BF280E0020300C00209E97020098C500202DE9F04F85B004ACF9
:20655C00002B814616460D4618BF1C46D0F800B00020206021F0DBFB9BF8071039B19BF81F
:20657C00641049B121F0DBFB6FF00804CBE021F0D6FB6FF00E04C6E0002102940E9C012217
:20659C00CBE91A56CBF87060CBF878108BF813108BF80C108BF80A108BF86420CBF83810E9
:2065BC0021F0BDFB48461CF023FA601E10F1030F0BD89BF8040040B90BF1CC062146304690
:2065DC0021F09BFB304621F09AFB0BF14C070BF17C0821F09CFB06460DF10C0ADBF87000C2
:2065FC0000287ED09BF80A00002862D19BF80C00002864D1484618F08DFA4046002120F041
:20661C0001FC21F004FB384651461FF080F9064621F07DFBDBF870100446DBF878008E4227
:20663C0088BF0E4603992844324621F027FC384631461DF0EFFCDBF87000DBF87810801BC9
:20665C00CBF870008819CBF87800204621F067FB012E03DBDBF870000028D4D121F057FBB6
:20667C009BF804100646DBF8780002292AD088B1484600210FF000F89BF804109BF806007C
:20669C0001292AD018B19BF8130000286BD1DBF8700030B321F0BBFA9BF80400012817D054
:2066BC0040464FF0FF3120F0ADFB21F030FB064694E700206FF00D048BF80A0012E06FF0A0
:2066DC000C040FE00024002808BF6FF00F0409E0002421F01CFB064604E0C0B9DBF87000F9
:2066FC00A8B10024029F9BF80400012806D000208BF864000BF1CC0021F003FBDBF87800A1
:20671C00386021F084FA204605B0BDE8F08F0024012530468BF86440CBF870408BF81050BA
:20673C0021F0FDFA9BF80F00029FB8B912E021F0EEFAABF80F5021F0F2FADBF84830DBF879
:20675C006810DBF87820DBF8106148460094B0478BF80F409BF810000028E8D1002421F052
:20677C00D6FA0646BFE700248BF81340BAE770472DE9F04F99B012AF8A4604461C2193465A
:20679C00384620F07BFC204639460BF005FC9DF855009DF85C10084307D09DF848004106C6
:2067BC000CD560891BF01AFD30B140F235100DF0A4F919B0BDE8F08F9DF84800C0F3401909
:2067DC0000F00C0510F0200F18BF042D21D1E08D9DF8483010F080010CD15A060AD59DF8C7
:2067FC004920920706D143F0040202F00C020C2A40F0CA804FF00008012213F003031ED05A
:20681C00012B46D0022BD4D1A08912A919F00CFCCFE7A68920F080FF864202D1E08D0106D0
:20683C0009D4A68920F078FF864200F08B80E08D010600F18780000679D4A0897BE0544E01
:20685C00F37A012B02D1A379002B78D00223A7898DF84430ADF83C7081BB042D75D1207C33
:20687C004E4D8DF85E0028680028A2D020F054FF87429ED1E08D217994F830202D684346B8
:20689C00CDE903028DE8020A0FA812A95246A8478FE7002918BF012152EA010003D1A089D5
:2068BC0012A913F028FDA0890797ADF81800A0798DF81A0006A818F015F87AE7ADF83000A4
:2068DC0016989DF84A109DF84B208DF8203094F832300B9060898DF82310DDF84E108DF848
:2068FC00222094F830208DF83830ADF81800B08CCDF826109DF85C108DF83720ADF82400D7
:20691C00207CADF82A10A17C8DF8320020798DF834109DF85F108DF833009DF85D008DF877
